{
  "_format": "hh-sol-artifact-1",
  "contractName": "DVoteFactory",
  "sourceName": "contracts/DVoteFactory.sol",
  "abi": [
    {
      "inputs": [
        {
          "internalType": "address",
          "name": "_voteAddress",
          "type": "address"
        }
      ],
      "stateMutability": "nonpayable",
      "type": "constructor"
    },
    {
      "anonymous": false,
      "inputs": [
        {
          "indexed": false,
          "internalType": "contract DVote",
          "name": "dvote",
          "type": "address"
        }
      ],
      "name": "CreateDVote",
      "type": "event"
    },
    {
      "anonymous": false,
      "inputs": [
        {
          "indexed": true,
          "internalType": "address",
          "name": "previousOwner",
          "type": "address"
        },
        {
          "indexed": true,
          "internalType": "address",
          "name": "newOwner",
          "type": "address"
        }
      ],
      "name": "OwnershipTransferred",
      "type": "event"
    },
    {
      "inputs": [
        {
          "internalType": "address",
          "name": "newAddress",
          "type": "address"
        }
      ],
      "name": "changeVoteAddress",
      "outputs": [],
      "stateMutability": "nonpayable",
      "type": "function"
    },
    {
      "inputs": [
        {
          "internalType": "string",
          "name": "_name",
          "type": "string"
        },
        {
          "internalType": "uint256",
          "name": "_startsAt",
          "type": "uint256"
        },
        {
          "internalType": "uint256",
          "name": "_endsAt",
          "type": "uint256"
        }
      ],
      "name": "createDVote",
      "outputs": [],
      "stateMutability": "nonpayable",
      "type": "function"
    },
    {
      "inputs": [
        {
          "internalType": "uint256",
          "name": "",
          "type": "uint256"
        }
      ],
      "name": "deployedDVotes",
      "outputs": [
        {
          "internalType": "address",
          "name": "",
          "type": "address"
        }
      ],
      "stateMutability": "view",
      "type": "function"
    },
    {
      "inputs": [],
      "name": "owner",
      "outputs": [
        {
          "internalType": "address",
          "name": "",
          "type": "address"
        }
      ],
      "stateMutability": "view",
      "type": "function"
    },
    {
      "inputs": [],
      "name": "renounceOwnership",
      "outputs": [],
      "stateMutability": "nonpayable",
      "type": "function"
    },
    {
      "inputs": [],
      "name": "returnDeployedDVotes",
      "outputs": [
        {
          "internalType": "address[]",
          "name": "",
          "type": "address[]"
        }
      ],
      "stateMutability": "view",
      "type": "function"
    },
    {
      "inputs": [
        {
          "internalType": "address",
          "name": "newOwner",
          "type": "address"
        }
      ],
      "name": "transferOwnership",
      "outputs": [],
      "stateMutability": "nonpayable",
      "type": "function"
    },
    {
      "inputs": [],
      "name": "voteAddress",
      "outputs": [
        {
          "internalType": "address",
          "name": "",
          "type": "address"
        }
      ],
      "stateMutability": "view",
      "type": "function"
    }
  ],
  "bytecode": "0x60806040523480156200001157600080fd5b5060405162003990380380620039908339818101604052810190620000379190620001d5565b620000576200004b6200009f60201b60201c565b620000a760201b60201c565b80600260006101000a81548173ffffffffffffffffffffffffffffffffffffffff021916908373ffffffffffffffffffffffffffffffffffffffff1602179055505062000207565b600033905090565b60008060009054906101000a900473ffffffffffffffffffffffffffffffffffffffff169050816000806101000a81548173ffffffffffffffffffffffffffffffffffffffff021916908373ffffffffffffffffffffffffffffffffffffffff1602179055508173ffffffffffffffffffffffffffffffffffffffff168173ffffffffffffffffffffffffffffffffffffffff167f8be0079c531659141344cd1fd0a4f28419497f9722a3daafe3b4186f6b6457e060405160405180910390a35050565b600080fd5b600073ffffffffffffffffffffffffffffffffffffffff82169050919050565b60006200019d8262000170565b9050919050565b620001af8162000190565b8114620001bb57600080fd5b50565b600081519050620001cf81620001a4565b92915050565b600060208284031215620001ee57620001ed6200016b565b5b6000620001fe84828501620001be565b91505092915050565b61377980620002176000396000f3fe60806040523480156200001157600080fd5b5060043610620000945760003560e01c8063950b282a1162000063578063950b282a146200011f578063bd4663771462000141578063bd971d411462000161578063f2fde38b14620001815762000094565b80633d6dc9281462000099578063715018a614620000bb57806381eae75214620000c75780638da5cb5b14620000fd575b600080fd5b620000a3620001a1565b604051620000b2919062000719565b60405180910390f35b620000c5620001c7565b005b620000e56004803603810190620000df919062000785565b620001df565b604051620000f4919062000719565b60405180910390f35b620001076200021f565b60405162000116919062000719565b60405180910390f35b6200012962000248565b60405162000138919062000885565b60405180910390f35b6200015f6004803603810190620001599190620008da565b620002d8565b005b6200017f600480360381019062000179919062000a6e565b62000326565b005b6200019f6004803603810190620001999190620008da565b620004eb565b005b600260009054906101000a900473ffffffffffffffffffffffffffffffffffffffff1681565b620001d162000575565b620001dd6000620005fa565b565b60018181548110620001f057600080fd5b906000526020600020016000915054906101000a900473ffffffffffffffffffffffffffffffffffffffff1681565b60008060009054906101000a900473ffffffffffffffffffffffffffffffffffffffff16905090565b60606001805480602002602001604051908101604052809291908181526020018280548015620002ce57602002820191906000526020600020905b8160009054906101000a900473ffffffffffffffffffffffffffffffffffffffff1673ffffffffffffffffffffffffffffffffffffffff168152602001906001019080831162000283575b5050505050905090565b620002e262000575565b80600260006101000a81548173ffffffffffffffffffffffffffffffffffffffff021916908373ffffffffffffffffffffffffffffffffffffffff16021790555050565b6200033062000575565b80821062000375576040517f08c379a00000000000000000000000000000000000000000000000000000000081526004016200036c9062000b4a565b60405180910390fd5b6000838383600260009054906101000a900473ffffffffffffffffffffffffffffffffffffffff16604051620003ab90620006c6565b620003ba949392919062000bf5565b604051809103906000f080158015620003d7573d6000803e3d6000fd5b5090508073ffffffffffffffffffffffffffffffffffffffff1663f2fde38b336040518263ffffffff1660e01b815260040162000415919062000719565b600060405180830381600087803b1580156200043057600080fd5b505af115801562000445573d6000803e3d6000fd5b505050506001819080600181540180825580915050600190039060005260206000200160009091909190916101000a81548173ffffffffffffffffffffffffffffffffffffffff021916908373ffffffffffffffffffffffffffffffffffffffff1602179055507f6b7b0209ddd8d49483acf77ead984779c543567650ce565fdef4c67a01c55d0781604051620004dd919062000cb4565b60405180910390a150505050565b620004f562000575565b600073ffffffffffffffffffffffffffffffffffffffff168173ffffffffffffffffffffffffffffffffffffffff160362000567576040517f08c379a00000000000000000000000000000000000000000000000000000000081526004016200055e9062000d47565b60405180910390fd5b6200057281620005fa565b50565b6200057f620006be565b73ffffffffffffffffffffffffffffffffffffffff166200059f6200021f565b73ffffffffffffffffffffffffffffffffffffffff1614620005f8576040517f08c379a0000000000000000000000000000000000000000000000000000000008152600401620005ef9062000db9565b60405180910390fd5b565b60008060009054906101000a900473ffffffffffffffffffffffffffffffffffffffff169050816000806101000a81548173ffffffffffffffffffffffffffffffffffffffff021916908373ffffffffffffffffffffffffffffffffffffffff1602179055508173ffffffffffffffffffffffffffffffffffffffff168173ffffffffffffffffffffffffffffffffffffffff167f8be0079c531659141344cd1fd0a4f28419497f9722a3daafe3b4186f6b6457e060405160405180910390a35050565b600033905090565b6129688062000ddc83390190565b600073ffffffffffffffffffffffffffffffffffffffff82169050919050565b60006200070182620006d4565b9050919050565b6200071381620006f4565b82525050565b600060208201905062000730600083018462000708565b92915050565b6000604051905090565b600080fd5b600080fd5b6000819050919050565b6200075f816200074a565b81146200076b57600080fd5b50565b6000813590506200077f8162000754565b92915050565b6000602082840312156200079e576200079d62000740565b5b6000620007ae848285016200076e565b91505092915050565b600081519050919050565b600082825260208201905092915050565b6000819050602082019050919050565b620007ee81620006f4565b82525050565b6000620008028383620007e3565b60208301905092915050565b6000602082019050919050565b60006200082882620007b7565b620008348185620007c2565b93506200084183620007d3565b8060005b83811015620008785781516200085c8882620007f4565b975062000869836200080e565b92505060018101905062000845565b5085935050505092915050565b60006020820190508181036000830152620008a181846200081b565b905092915050565b620008b481620006f4565b8114620008c057600080fd5b50565b600081359050620008d481620008a9565b92915050565b600060208284031215620008f357620008f262000740565b5b60006200090384828501620008c3565b91505092915050565b600080fd5b600080fd5b6000601f19601f8301169050919050565b7f4e487b7100000000000000000000000000000000000000000000000000000000600052604160045260246000fd5b620009618262000916565b810181811067ffffffffffffffff8211171562000983576200098262000927565b5b80604052505050565b60006200099862000736565b9050620009a6828262000956565b919050565b600067ffffffffffffffff821115620009c957620009c862000927565b5b620009d48262000916565b9050602081019050919050565b82818337600083830152505050565b600062000a0762000a0184620009ab565b6200098c565b90508281526020810184848401111562000a265762000a2562000911565b5b62000a33848285620009e1565b509392505050565b600082601f83011262000a535762000a526200090c565b5b813562000a65848260208601620009f0565b91505092915050565b60008060006060848603121562000a8a5762000a8962000740565b5b600084013567ffffffffffffffff81111562000aab5762000aaa62000745565b5b62000ab98682870162000a3b565b935050602062000acc868287016200076e565b925050604062000adf868287016200076e565b9150509250925092565b600082825260208201905092915050565b7f57726f6e672074696d6520746f20766f74650000000000000000000000000000600082015250565b600062000b3260128362000ae9565b915062000b3f8262000afa565b602082019050919050565b6000602082019050818103600083015262000b658162000b23565b9050919050565b600081519050919050565b60005b8381101562000b9757808201518184015260208101905062000b7a565b60008484015250505050565b600062000bb08262000b6c565b62000bbc818562000ae9565b935062000bce81856020860162000b77565b62000bd98162000916565b840191505092915050565b62000bef816200074a565b82525050565b6000608082019050818103600083015262000c11818762000ba3565b905062000c22602083018662000be4565b62000c31604083018562000be4565b62000c40606083018462000708565b95945050505050565b6000819050919050565b600062000c7462000c6e62000c6884620006d4565b62000c49565b620006d4565b9050919050565b600062000c888262000c53565b9050919050565b600062000c9c8262000c7b565b9050919050565b62000cae8162000c8f565b82525050565b600060208201905062000ccb600083018462000ca3565b92915050565b7f4f776e61626c653a206e6577206f776e657220697320746865207a65726f206160008201527f6464726573730000000000000000000000000000000000000000000000000000602082015250565b600062000d2f60268362000ae9565b915062000d3c8262000cd1565b604082019050919050565b6000602082019050818103600083015262000d628162000d20565b9050919050565b7f4f776e61626c653a2063616c6c6572206973206e6f7420746865206f776e6572600082015250565b600062000da160208362000ae9565b915062000dae8262000d69565b602082019050919050565b6000602082019050818103600083015262000dd48162000d92565b905091905056fe60806040523480156200001157600080fd5b5060405162002968380380620029688339818101604052810190620000379190620003db565b620000576200004b620000dc60201b60201c565b620000e460201b60201c565b8360029081620000689190620006ad565b5080600660006101000a81548173ffffffffffffffffffffffffffffffffffffffff021916908373ffffffffffffffffffffffffffffffffffffffff1602179055508242620000b89190620007c3565b6003819055508142620000cc9190620007c3565b60048190555050505050620007fe565b600033905090565b60008060009054906101000a900473ffffffffffffffffffffffffffffffffffffffff169050816000806101000a81548173ffffffffffffffffffffffffffffffffffffffff021916908373ffffffffffffffffffffffffffffffffffffffff1602179055508173ffffffffffffffffffffffffffffffffffffffff168173ffffffffffffffffffffffffffffffffffffffff167f8be0079c531659141344cd1fd0a4f28419497f9722a3daafe3b4186f6b6457e060405160405180910390a35050565b6000604051905090565b600080fd5b600080fd5b600080fd5b600080fd5b6000601f19601f8301169050919050565b7f4e487b7100000000000000000000000000000000000000000000000000000000600052604160045260246000fd5b6200021182620001c6565b810181811067ffffffffffffffff82111715620002335762000232620001d7565b5b80604052505050565b600062000248620001a8565b905062000256828262000206565b919050565b600067ffffffffffffffff821115620002795762000278620001d7565b5b6200028482620001c6565b9050602081019050919050565b60005b83811015620002b157808201518184015260208101905062000294565b60008484015250505050565b6000620002d4620002ce846200025b565b6200023c565b905082815260208101848484011115620002f357620002f2620001c1565b5b6200030084828562000291565b509392505050565b600082601f83011262000320576200031f620001bc565b5b815162000332848260208601620002bd565b91505092915050565b6000819050919050565b62000350816200033b565b81146200035c57600080fd5b50565b600081519050620003708162000345565b92915050565b600073ffffffffffffffffffffffffffffffffffffffff82169050919050565b6000620003a38262000376565b9050919050565b620003b58162000396565b8114620003c157600080fd5b50565b600081519050620003d581620003aa565b92915050565b60008060008060808587031215620003f857620003f7620001b2565b5b600085015167ffffffffffffffff811115620004195762000418620001b7565b5b620004278782880162000308565b94505060206200043a878288016200035f565b93505060406200044d878288016200035f565b92505060606200046087828801620003c4565b91505092959194509250565b600081519050919050565b7f4e487b7100000000000000000000000000000000000000000000000000000000600052602260045260246000fd5b60006002820490506001821680620004bf57607f821691505b602082108103620004d557620004d462000477565b5b50919050565b60008190508160005260206000209050919050565b60006020601f8301049050919050565b600082821b905092915050565b6000600883026200053f7fffffffffffffffffffffffffffffffffffffffffffffffffffffffffffffffff8262000500565b6200054b868362000500565b95508019841693508086168417925050509392505050565b6000819050919050565b60006200058e6200058862000582846200033b565b62000563565b6200033b565b9050919050565b6000819050919050565b620005aa836200056d565b620005c2620005b98262000595565b8484546200050d565b825550505050565b600090565b620005d9620005ca565b620005e68184846200059f565b505050565b5b818110156200060e5762000602600082620005cf565b600181019050620005ec565b5050565b601f8211156200065d576200062781620004db565b6200063284620004f0565b8101602085101562000642578190505b6200065a6200065185620004f0565b830182620005eb565b50505b505050565b600082821c905092915050565b6000620006826000198460080262000662565b1980831691505092915050565b60006200069d83836200066f565b9150826002028217905092915050565b620006b8826200046c565b67ffffffffffffffff811115620006d457620006d3620001d7565b5b620006e08254620004a6565b620006ed82828562000612565b600060209050601f83116001811462000725576000841562000710578287015190505b6200071c85826200068f565b8655506200078c565b601f1984166200073586620004db565b60005b828110156200075f5784890151825560018201915060208501945060208101905062000738565b868310156200077f57848901516200077b601f8916826200066f565b8355505b6001600288020188555050505b505050505050565b7f4e487b7100000000000000000000000000000000000000000000000000000000600052601160045260246000fd5b6000620007d0826200033b565b9150620007dd836200033b565b9250828201905080821115620007f857620007f762000794565b5b92915050565b61215a806200080e6000396000f3fe608060405234801561001057600080fd5b50600436106100ea5760003560e01c80638da5cb5b1161008c578063a3ec138d11610066578063a3ec138d1461022a578063af4686821461025a578063f2fde38b14610278578063ff3b9b0414610294576100ea565b80638da5cb5b146101be57806395f85022146101dc5780639f91e6bf1461020c576100ea565b80631e620cd4116100c85780631e620cd41461014757806336c8c5ee1461016357806370f67cfe1461017f578063715018a6146101b4576100ea565b806306fdde03146100ef5780630a09284a1461010d5780631d823d321461012b575b600080fd5b6100f76102b0565b6040516101049190611350565b60405180910390f35b61011561033e565b604051610122919061138b565b60405180910390f35b610145600480360381019061014091906114ef565b610344565b005b610161600480360381019061015c91906115c2565b61058c565b005b61017d600480360381019061017891906115c2565b610750565b005b610199600480360381019061019491906115c2565b610a8f565b6040516101ab9695949392919061160a565b60405180910390f35b6101bc610d40565b005b6101c6610d54565b6040516101d391906116c1565b60405180910390f35b6101f660048036038101906101f191906115c2565b610d7d565b60405161020391906117db565b60405180910390f35b610214610f9e565b604051610221919061138b565b60405180910390f35b610244600480360381019061023f9190611829565b610faa565b6040516102519190611856565b60405180910390f35b610262610fca565b60405161026f919061138b565b60405180910390f35b610292600480360381019061028d9190611829565b610fd0565b005b6102ae60048036038101906102a99190611871565b611053565b005b600280546102bd906118fc565b80601f01602080910402602001604051908101604052809291908181526020018280546102e9906118fc565b80156103365780601f1061030b57610100808354040283529160200191610336565b820191906000526020600020905b81548152906001019060200180831161031957829003601f168201915b505050505081565b60045481565b61034c61111a565b6003544211610390576040517f08c379a000000000000000000000000000000000000000000000000000000000815260040161038790611979565b60405180910390fd5b60045442106103d4576040517f08c379a00000000000000000000000000000000000000000000000000000000081526004016103cb906119e5565b60405180910390fd5b6040518060c001604052806103e96001611198565b81526020018481526020018381526020018281526020016000815260200160001515815250600860008201518160000155602082015181600101908161042f9190611bb1565b5060408201518160020190816104459190611bb1565b50606082015181600301908161045b9190611bb1565b506080820151816004015560a08201518160050160006101000a81548160ff02191690831515021790555090505060076008908060018154018082558091505060019003906000526020600020906006020160009091909190915060008201548160000155600182018160010190816104d49190611c99565b50600282018160020190816104e99190611c99565b50600382018160030190816104fe9190611c99565b50600482015481600401556005820160009054906101000a900460ff168160050160006101000a81548160ff02191690831515021790555050507f604211d70ec644ccdb1f6aed2911519f21f9b666520397bcc38b34f01b52b66a6105636001611198565b82600060405161057593929190611dbc565b60405180910390a161058760016111a6565b505050565b61059461111a565b60035442116105d8576040517f08c379a00000000000000000000000000000000000000000000000000000000081526004016105cf90611979565b60405180910390fd5b600454421061061c576040517f08c379a0000000000000000000000000000000000000000000000000000000008152600401610613906119e5565b60405180910390fd5b6040518060c001604052806000815260200160405180602001604052806000815250815260200160405180602001604052806000815250815260200160405180602001604052806000815250815260200160008152602001600115158152506007828154811061068f5761068e611dfa565b5b90600052602060002090600602016000820151816000015560208201518160010190816106bc9190611bb1565b5060408201518160020190816106d29190611bb1565b5060608201518160030190816106e89190611bb1565b506080820151816004015560a08201518160050160006101000a81548160ff0219169083151502179055509050507f29ab6fac06eb32ebcc3a011f02383a9d57c946d0676bf8ccaed3f20e88410d4581604051610745919061138b565b60405180910390a150565b6003544211610794576040517f08c379a000000000000000000000000000000000000000000000000000000000815260040161078b90611979565b60405180910390fd5b60045442106107d8576040517f08c379a00000000000000000000000000000000000000000000000000000000081526004016107cf906119e5565b60405180910390fd5b60001515600560003373ffffffffffffffffffffffffffffffffffffffff1673ffffffffffffffffffffffffffffffffffffffff16815260200190815260200160002060009054906101000a900460ff1615151461086b576040517f08c379a000000000000000000000000000000000000000000000000000000000815260040161086290611e75565b60405180910390fd5b6001600660009054906101000a900473ffffffffffffffffffffffffffffffffffffffff1673ffffffffffffffffffffffffffffffffffffffff166370a08231336040518263ffffffff1660e01b81526004016108c891906116c1565b602060405180830381865afa1580156108e5573d6000803e3d6000fd5b505050506040513d601f19601f820116820180604052508101906109099190611eaa565b14610949576040517f08c379a000000000000000000000000000000000000000000000000000000000815260040161094090611f23565b60405180910390fd5b600015156007828154811061096157610960611dfa565b5b906000526020600020906006020160050160009054906101000a900460ff161515146109c2576040517f08c379a00000000000000000000000000000000000000000000000000000000081526004016109b990611f8f565b60405180910390fd5b6001600560003373ffffffffffffffffffffffffffffffffffffffff1673ffffffffffffffffffffffffffffffffffffffff16815260200190815260200160002060006101000a81548160ff02191690831515021790555060078181548110610a2e57610a2d611dfa565b5b90600052602060002090600602016004016000815480929190610a5090611fde565b91905055507f86cb363aa42a7c683e9c09b319587eff9427c4cbf66171e675abc5ef15d1d75e81604051610a84919061138b565b60405180910390a150565b6000606080606060008060078781548110610aad57610aac611dfa565b5b90600052602060002090600602016000015460078881548110610ad357610ad2611dfa565b5b906000526020600020906006020160010160078981548110610af857610af7611dfa565b5b906000526020600020906006020160020160078a81548110610b1d57610b1c611dfa565b5b906000526020600020906006020160030160078b81548110610b4257610b41611dfa565b5b90600052602060002090600602016004015460078c81548110610b6857610b67611dfa565b5b906000526020600020906006020160050160009054906101000a900460ff16848054610b93906118fc565b80601f0160208091040260200160405190810160405280929190818152602001828054610bbf906118fc565b8015610c0c5780601f10610be157610100808354040283529160200191610c0c565b820191906000526020600020905b815481529060010190602001808311610bef57829003601f168201915b50505050509450838054610c1f906118fc565b80601f0160208091040260200160405190810160405280929190818152602001828054610c4b906118fc565b8015610c985780601f10610c6d57610100808354040283529160200191610c98565b820191906000526020600020905b815481529060010190602001808311610c7b57829003601f168201915b50505050509350828054610cab906118fc565b80601f0160208091040260200160405190810160405280929190818152602001828054610cd7906118fc565b8015610d245780601f10610cf957610100808354040283529160200191610d24565b820191906000526020600020905b815481529060010190602001808311610d0757829003601f168201915b5050505050925095509550955095509550955091939550919395565b610d4861111a565b610d5260006111bc565b565b60008060009054906101000a900473ffffffffffffffffffffffffffffffffffffffff16905090565b610d85611288565b60078281548110610d9957610d98611dfa565b5b90600052602060002090600602016040518060c001604052908160008201548152602001600182018054610dcc906118fc565b80601f0160208091040260200160405190810160405280929190818152602001828054610df8906118fc565b8015610e455780601f10610e1a57610100808354040283529160200191610e45565b820191906000526020600020905b815481529060010190602001808311610e2857829003601f168201915b50505050508152602001600282018054610e5e906118fc565b80601f0160208091040260200160405190810160405280929190818152602001828054610e8a906118fc565b8015610ed75780601f10610eac57610100808354040283529160200191610ed7565b820191906000526020600020905b815481529060010190602001808311610eba57829003601f168201915b50505050508152602001600382018054610ef0906118fc565b80601f0160208091040260200160405190810160405280929190818152602001828054610f1c906118fc565b8015610f695780601f10610f3e57610100808354040283529160200191610f69565b820191906000526020600020905b815481529060010190602001808311610f4c57829003601f168201915b50505050508152602001600482015481526020016005820160009054906101000a900460ff1615151515815250509050919050565b60018060000154905081565b60056020528060005260406000206000915054906101000a900460ff1681565b60035481565b610fd861111a565b600073ffffffffffffffffffffffffffffffffffffffff168173ffffffffffffffffffffffffffffffffffffffff1603611047576040517f08c379a000000000000000000000000000000000000000000000000000000000815260040161103e90612098565b60405180910390fd5b611050816111bc565b50565b61105b61111a565b600354421161109f576040517f08c379a000000000000000000000000000000000000000000000000000000000815260040161109690611979565b60405180910390fd5b60045442106110e3576040517f08c379a00000000000000000000000000000000000000000000000000000000081526004016110da906119e5565b60405180910390fd5b80600783815481106110f8576110f7611dfa565b5b906000526020600020906006020160030190816111159190611bb1565b505050565b611122611280565b73ffffffffffffffffffffffffffffffffffffffff16611140610d54565b73ffffffffffffffffffffffffffffffffffffffff1614611196576040517f08c379a000000000000000000000000000000000000000000000000000000000815260040161118d90612104565b60405180910390fd5b565b600081600001549050919050565b6001816000016000828254019250508190555050565b60008060009054906101000a900473ffffffffffffffffffffffffffffffffffffffff169050816000806101000a81548173ffffffffffffffffffffffffffffffffffffffff021916908373ffffffffffffffffffffffffffffffffffffffff1602179055508173ffffffffffffffffffffffffffffffffffffffff168173ffffffffffffffffffffffffffffffffffffffff167f8be0079c531659141344cd1fd0a4f28419497f9722a3daafe3b4186f6b6457e060405160405180910390a35050565b600033905090565b6040518060c0016040528060008152602001606081526020016060815260200160608152602001600081526020016000151581525090565b600081519050919050565b600082825260208201905092915050565b60005b838110156112fa5780820151818401526020810190506112df565b60008484015250505050565b6000601f19601f8301169050919050565b6000611322826112c0565b61132c81856112cb565b935061133c8185602086016112dc565b61134581611306565b840191505092915050565b6000602082019050818103600083015261136a8184611317565b905092915050565b6000819050919050565b61138581611372565b82525050565b60006020820190506113a0600083018461137c565b92915050565b6000604051905090565b600080fd5b600080fd5b600080fd5b600080fd5b7f4e487b7100000000000000000000000000000000000000000000000000000000600052604160045260246000fd5b6113fc82611306565b810181811067ffffffffffffffff8211171561141b5761141a6113c4565b5b80604052505050565b600061142e6113a6565b905061143a82826113f3565b919050565b600067ffffffffffffffff82111561145a576114596113c4565b5b61146382611306565b9050602081019050919050565b82818337600083830152505050565b600061149261148d8461143f565b611424565b9050828152602081018484840111156114ae576114ad6113bf565b5b6114b9848285611470565b509392505050565b600082601f8301126114d6576114d56113ba565b5b81356114e684826020860161147f565b91505092915050565b600080600060608486031215611508576115076113b0565b5b600084013567ffffffffffffffff811115611526576115256113b5565b5b611532868287016114c1565b935050602084013567ffffffffffffffff811115611553576115526113b5565b5b61155f868287016114c1565b925050604084013567ffffffffffffffff8111156115805761157f6113b5565b5b61158c868287016114c1565b9150509250925092565b61159f81611372565b81146115aa57600080fd5b50565b6000813590506115bc81611596565b92915050565b6000602082840312156115d8576115d76113b0565b5b60006115e6848285016115ad565b91505092915050565b60008115159050919050565b611604816115ef565b82525050565b600060c08201905061161f600083018961137c565b81810360208301526116318188611317565b905081810360408301526116458187611317565b905081810360608301526116598186611317565b9050611668608083018561137c565b61167560a08301846115fb565b979650505050505050565b600073ffffffffffffffffffffffffffffffffffffffff82169050919050565b60006116ab82611680565b9050919050565b6116bb816116a0565b82525050565b60006020820190506116d660008301846116b2565b92915050565b6116e581611372565b82525050565b600082825260208201905092915050565b6000611707826112c0565b61171181856116eb565b93506117218185602086016112dc565b61172a81611306565b840191505092915050565b61173e816115ef565b82525050565b600060c08301600083015161175c60008601826116dc565b506020830151848203602086015261177482826116fc565b9150506040830151848203604086015261178e82826116fc565b915050606083015184820360608601526117a882826116fc565b91505060808301516117bd60808601826116dc565b5060a08301516117d060a0860182611735565b508091505092915050565b600060208201905081810360008301526117f58184611744565b905092915050565b611806816116a0565b811461181157600080fd5b50565b600081359050611823816117fd565b92915050565b60006020828403121561183f5761183e6113b0565b5b600061184d84828501611814565b91505092915050565b600060208201905061186b60008301846115fb565b92915050565b60008060408385031215611888576118876113b0565b5b6000611896858286016115ad565b925050602083013567ffffffffffffffff8111156118b7576118b66113b5565b5b6118c3858286016114c1565b9150509250929050565b7f4e487b7100000000000000000000000000000000000000000000000000000000600052602260045260246000fd5b6000600282049050600182168061191457607f821691505b602082108103611927576119266118cd565b5b50919050565b7f566f74696e6720686173206e6f74207374617274656400000000000000000000600082015250565b60006119636016836112cb565b915061196e8261192d565b602082019050919050565b6000602082019050818103600083015261199281611956565b9050919050565b7f566f74696e67206973206f766572000000000000000000000000000000000000600082015250565b60006119cf600e836112cb565b91506119da82611999565b602082019050919050565b600060208201905081810360008301526119fe816119c2565b9050919050565b60008190508160005260206000209050919050565b60006020601f8301049050919050565b600082821b905092915050565b600060088302611a677fffffffffffffffffffffffffffffffffffffffffffffffffffffffffffffffff82611a2a565b611a718683611a2a565b95508019841693508086168417925050509392505050565b6000819050919050565b6000611aae611aa9611aa484611372565b611a89565b611372565b9050919050565b6000819050919050565b611ac883611a93565b611adc611ad482611ab5565b848454611a37565b825550505050565b600090565b611af1611ae4565b611afc818484611abf565b505050565b5b81811015611b2057611b15600082611ae9565b600181019050611b02565b5050565b601f821115611b6557611b3681611a05565b611b3f84611a1a565b81016020851015611b4e578190505b611b62611b5a85611a1a565b830182611b01565b50505b505050565b600082821c905092915050565b6000611b8860001984600802611b6a565b1980831691505092915050565b6000611ba18383611b77565b9150826002028217905092915050565b611bba826112c0565b67ffffffffffffffff811115611bd357611bd26113c4565b5b611bdd82546118fc565b611be8828285611b24565b600060209050601f831160018114611c1b5760008415611c09578287015190505b611c138582611b95565b865550611c7b565b601f198416611c2986611a05565b60005b82811015611c5157848901518255600182019150602085019450602081019050611c2c565b86831015611c6e5784890151611c6a601f891682611b77565b8355505b6001600288020188555050505b505050505050565b600081549050611c92816118fc565b9050919050565b818103611ca7575050611d7f565b611cb082611c83565b67ffffffffffffffff811115611cc957611cc86113c4565b5b611cd382546118fc565b611cde828285611b24565b6000601f831160018114611d0d5760008415611cfb578287015490505b611d058582611b95565b865550611d78565b601f198416611d1b87611a05565b9650611d2686611a05565b60005b82811015611d4e57848901548255600182019150600185019450602081019050611d29565b86831015611d6b5784890154611d67601f891682611b77565b8355505b6001600288020188555050505b5050505050505b565b6000819050919050565b6000611da6611da1611d9c84611d81565b611a89565b611372565b9050919050565b611db681611d8b565b82525050565b6000606082019050611dd1600083018661137c565b8181036020830152611de38185611317565b9050611df26040830184611dad565b949350505050565b7f4e487b7100000000000000000000000000000000000000000000000000000000600052603260045260246000fd5b7f596f7520616c726561647920766f746564000000000000000000000000000000600082015250565b6000611e5f6011836112cb565b9150611e6a82611e29565b602082019050919050565b60006020820190508181036000830152611e8e81611e52565b9050919050565b600081519050611ea481611596565b92915050565b600060208284031215611ec057611ebf6113b0565b5b6000611ece84828501611e95565b91505092915050565b7f596f7520646f6e742068617665204e4654000000000000000000000000000000600082015250565b6000611f0d6011836112cb565b9150611f1882611ed7565b602082019050919050565b60006020820190508181036000830152611f3c81611f00565b9050919050565b7f43616e64696461746520646f6573206e6f742065786973740000000000000000600082015250565b6000611f796018836112cb565b9150611f8482611f43565b602082019050919050565b60006020820190508181036000830152611fa881611f6c565b9050919050565b7f4e487b7100000000000000000000000000000000000000000000000000000000600052601160045260246000fd5b6000611fe982611372565b91507fffffffffffffffffffffffffffffffffffffffffffffffffffffffffffffffff820361201b5761201a611faf565b5b600182019050919050565b7f4f776e61626c653a206e6577206f776e657220697320746865207a65726f206160008201527f6464726573730000000000000000000000000000000000000000000000000000602082015250565b60006120826026836112cb565b915061208d82612026565b604082019050919050565b600060208201905081810360008301526120b181612075565b9050919050565b7f4f776e61626c653a2063616c6c6572206973206e6f7420746865206f776e6572600082015250565b60006120ee6020836112cb565b91506120f9826120b8565b602082019050919050565b6000602082019050818103600083015261211d816120e1565b905091905056fea2646970667358221220b13c54f4a2279fea9e22a969f8e60a7375328c7b28fbbce777c25083b87f6a9e64736f6c63430008110033a2646970667358221220f2c690835b22f37616c9be519cdc076e12ab94ca1dc80062fb7f82c7593ef98e64736f6c63430008110033",
  "linkReferences": {},
  "deployedLinkReferences": {}
}