{
  "_format": "hh-sol-artifact-1",
  "contractName": "Vote",
  "sourceName": "contracts/Vote.sol",
  "abi": [
    {
      "inputs": [],
      "stateMutability": "nonpayable",
      "type": "constructor"
    },
    {
      "anonymous": false,
      "inputs": [
        {
          "indexed": true,
          "internalType": "address",
          "name": "owner",
          "type": "address"
        },
        {
          "indexed": true,
          "internalType": "address",
          "name": "approved",
          "type": "address"
        },
        {
          "indexed": true,
          "internalType": "uint256",
          "name": "tokenId",
          "type": "uint256"
        }
      ],
      "name": "Approval",
      "type": "event"
    },
    {
      "anonymous": false,
      "inputs": [
        {
          "indexed": true,
          "internalType": "address",
          "name": "owner",
          "type": "address"
        },
        {
          "indexed": true,
          "internalType": "address",
          "name": "operator",
          "type": "address"
        },
        {
          "indexed": false,
          "internalType": "bool",
          "name": "approved",
          "type": "bool"
        }
      ],
      "name": "ApprovalForAll",
      "type": "event"
    },
    {
      "anonymous": false,
      "inputs": [
        {
          "indexed": true,
          "internalType": "address",
          "name": "previousOwner",
          "type": "address"
        },
        {
          "indexed": true,
          "internalType": "address",
          "name": "newOwner",
          "type": "address"
        }
      ],
      "name": "OwnershipTransferred",
      "type": "event"
    },
    {
      "anonymous": false,
      "inputs": [
        {
          "indexed": true,
          "internalType": "address",
          "name": "from",
          "type": "address"
        },
        {
          "indexed": true,
          "internalType": "address",
          "name": "to",
          "type": "address"
        },
        {
          "indexed": true,
          "internalType": "uint256",
          "name": "tokenId",
          "type": "uint256"
        }
      ],
      "name": "Transfer",
      "type": "event"
    },
    {
      "inputs": [
        {
          "internalType": "address",
          "name": "to",
          "type": "address"
        },
        {
          "internalType": "uint256",
          "name": "tokenId",
          "type": "uint256"
        }
      ],
      "name": "approve",
      "outputs": [],
      "stateMutability": "nonpayable",
      "type": "function"
    },
    {
      "inputs": [
        {
          "internalType": "address",
          "name": "owner",
          "type": "address"
        }
      ],
      "name": "balanceOf",
      "outputs": [
        {
          "internalType": "uint256",
          "name": "",
          "type": "uint256"
        }
      ],
      "stateMutability": "view",
      "type": "function"
    },
    {
      "inputs": [
        {
          "internalType": "uint256",
          "name": "tokenId",
          "type": "uint256"
        }
      ],
      "name": "burn",
      "outputs": [],
      "stateMutability": "nonpayable",
      "type": "function"
    },
    {
      "inputs": [
        {
          "internalType": "uint256",
          "name": "tokenId",
          "type": "uint256"
        }
      ],
      "name": "getApproved",
      "outputs": [
        {
          "internalType": "address",
          "name": "",
          "type": "address"
        }
      ],
      "stateMutability": "view",
      "type": "function"
    },
    {
      "inputs": [
        {
          "internalType": "address",
          "name": "",
          "type": "address"
        }
      ],
      "name": "idByAddress",
      "outputs": [
        {
          "internalType": "uint256",
          "name": "",
          "type": "uint256"
        }
      ],
      "stateMutability": "view",
      "type": "function"
    },
    {
      "inputs": [
        {
          "internalType": "address",
          "name": "owner",
          "type": "address"
        },
        {
          "internalType": "address",
          "name": "operator",
          "type": "address"
        }
      ],
      "name": "isApprovedForAll",
      "outputs": [
        {
          "internalType": "bool",
          "name": "",
          "type": "bool"
        }
      ],
      "stateMutability": "view",
      "type": "function"
    },
    {
      "inputs": [],
      "name": "name",
      "outputs": [
        {
          "internalType": "string",
          "name": "",
          "type": "string"
        }
      ],
      "stateMutability": "view",
      "type": "function"
    },
    {
      "inputs": [],
      "name": "owner",
      "outputs": [
        {
          "internalType": "address",
          "name": "",
          "type": "address"
        }
      ],
      "stateMutability": "view",
      "type": "function"
    },
    {
      "inputs": [
        {
          "internalType": "uint256",
          "name": "tokenId",
          "type": "uint256"
        }
      ],
      "name": "ownerOf",
      "outputs": [
        {
          "internalType": "address",
          "name": "",
          "type": "address"
        }
      ],
      "stateMutability": "view",
      "type": "function"
    },
    {
      "inputs": [],
      "name": "renounceOwnership",
      "outputs": [],
      "stateMutability": "nonpayable",
      "type": "function"
    },
    {
      "inputs": [
        {
          "internalType": "address",
          "name": "to",
          "type": "address"
        },
        {
          "internalType": "string",
          "name": "uri",
          "type": "string"
        }
      ],
      "name": "safeMint",
      "outputs": [],
      "stateMutability": "nonpayable",
      "type": "function"
    },
    {
      "inputs": [
        {
          "internalType": "address",
          "name": "from",
          "type": "address"
        },
        {
          "internalType": "address",
          "name": "to",
          "type": "address"
        },
        {
          "internalType": "uint256",
          "name": "tokenId",
          "type": "uint256"
        }
      ],
      "name": "safeTransferFrom",
      "outputs": [],
      "stateMutability": "nonpayable",
      "type": "function"
    },
    {
      "inputs": [
        {
          "internalType": "address",
          "name": "from",
          "type": "address"
        },
        {
          "internalType": "address",
          "name": "to",
          "type": "address"
        },
        {
          "internalType": "uint256",
          "name": "tokenId",
          "type": "uint256"
        },
        {
          "internalType": "bytes",
          "name": "data",
          "type": "bytes"
        }
      ],
      "name": "safeTransferFrom",
      "outputs": [],
      "stateMutability": "nonpayable",
      "type": "function"
    },
    {
      "inputs": [
        {
          "internalType": "address",
          "name": "operator",
          "type": "address"
        },
        {
          "internalType": "bool",
          "name": "approved",
          "type": "bool"
        }
      ],
      "name": "setApprovalForAll",
      "outputs": [],
      "stateMutability": "nonpayable",
      "type": "function"
    },
    {
      "inputs": [
        {
          "internalType": "bytes4",
          "name": "interfaceId",
          "type": "bytes4"
        }
      ],
      "name": "supportsInterface",
      "outputs": [
        {
          "internalType": "bool",
          "name": "",
          "type": "bool"
        }
      ],
      "stateMutability": "view",
      "type": "function"
    },
    {
      "inputs": [],
      "name": "symbol",
      "outputs": [
        {
          "internalType": "string",
          "name": "",
          "type": "string"
        }
      ],
      "stateMutability": "view",
      "type": "function"
    },
    {
      "inputs": [
        {
          "internalType": "uint256",
          "name": "index",
          "type": "uint256"
        }
      ],
      "name": "tokenByIndex",
      "outputs": [
        {
          "internalType": "uint256",
          "name": "",
          "type": "uint256"
        }
      ],
      "stateMutability": "view",
      "type": "function"
    },
    {
      "inputs": [
        {
          "internalType": "address",
          "name": "owner",
          "type": "address"
        },
        {
          "internalType": "uint256",
          "name": "index",
          "type": "uint256"
        }
      ],
      "name": "tokenOfOwnerByIndex",
      "outputs": [
        {
          "internalType": "uint256",
          "name": "",
          "type": "uint256"
        }
      ],
      "stateMutability": "view",
      "type": "function"
    },
    {
      "inputs": [
        {
          "internalType": "uint256",
          "name": "tokenId",
          "type": "uint256"
        }
      ],
      "name": "tokenURI",
      "outputs": [
        {
          "internalType": "string",
          "name": "",
          "type": "string"
        }
      ],
      "stateMutability": "view",
      "type": "function"
    },
    {
      "inputs": [],
      "name": "totalSupply",
      "outputs": [
        {
          "internalType": "uint256",
          "name": "",
          "type": "uint256"
        }
      ],
      "stateMutability": "view",
      "type": "function"
    },
    {
      "inputs": [
        {
          "internalType": "address",
          "name": "from",
          "type": "address"
        },
        {
          "internalType": "address",
          "name": "to",
          "type": "address"
        },
        {
          "internalType": "uint256",
          "name": "tokenId",
          "type": "uint256"
        }
      ],
      "name": "transferFrom",
      "outputs": [],
      "stateMutability": "nonpayable",
      "type": "function"
    },
    {
      "inputs": [
        {
          "internalType": "address",
          "name": "newOwner",
          "type": "address"
        }
      ],
      "name": "transferOwnership",
      "outputs": [],
      "stateMutability": "nonpayable",
      "type": "function"
    }
  ],
  "bytecode": "0x60806040523480156200001157600080fd5b506040518060400160405280600481526020017f566f7465000000000000000000000000000000000000000000000000000000008152506040518060400160405280600481526020017f564f54450000000000000000000000000000000000000000000000000000000081525081600090816200008f919062000412565b508060019081620000a1919062000412565b505050620000c4620000b8620000ca60201b60201c565b620000d260201b60201c565b620004f9565b600033905090565b6000600b60009054906101000a900473ffffffffffffffffffffffffffffffffffffffff16905081600b60006101000a81548173ffffffffffffffffffffffffffffffffffffffff021916908373ffffffffffffffffffffffffffffffffffffffff1602179055508173ffffffffffffffffffffffffffffffffffffffff168173ffffffffffffffffffffffffffffffffffffffff167f8be0079c531659141344cd1fd0a4f28419497f9722a3daafe3b4186f6b6457e060405160405180910390a35050565b600081519050919050565b7f4e487b7100000000000000000000000000000000000000000000000000000000600052604160045260246000fd5b7f4e487b7100000000000000000000000000000000000000000000000000000000600052602260045260246000fd5b600060028204905060018216806200021a57607f821691505b60208210810362000230576200022f620001d2565b5b50919050565b60008190508160005260206000209050919050565b60006020601f8301049050919050565b600082821b905092915050565b6000600883026200029a7fffffffffffffffffffffffffffffffffffffffffffffffffffffffffffffffff826200025b565b620002a686836200025b565b95508019841693508086168417925050509392505050565b6000819050919050565b6000819050919050565b6000620002f3620002ed620002e784620002be565b620002c8565b620002be565b9050919050565b6000819050919050565b6200030f83620002d2565b620003276200031e82620002fa565b84845462000268565b825550505050565b600090565b6200033e6200032f565b6200034b81848462000304565b505050565b5b8181101562000373576200036760008262000334565b60018101905062000351565b5050565b601f821115620003c2576200038c8162000236565b62000397846200024b565b81016020851015620003a7578190505b620003bf620003b6856200024b565b83018262000350565b50505b505050565b600082821c905092915050565b6000620003e760001984600802620003c7565b1980831691505092915050565b6000620004028383620003d4565b9150826002028217905092915050565b6200041d8262000198565b67ffffffffffffffff811115620004395762000438620001a3565b5b62000445825462000201565b6200045282828562000377565b600060209050601f8311600181146200048a576000841562000475578287015190505b620004818582620003f4565b865550620004f1565b601f1984166200049a8662000236565b60005b82811015620004c4578489015182556001820191506020850194506020810190506200049d565b86831015620004e45784890151620004e0601f891682620003d4565b8355505b6001600288020188555050505b505050505050565b613d1280620005096000396000f3fe608060405234801561001057600080fd5b50600436106101425760003560e01c80636352211e116100b8578063a22cb4651161007c578063a22cb46514610389578063b88d4fde146103a5578063c87b56dd146103c1578063d204c45e146103f1578063e985e9c51461040d578063f2fde38b1461043d57610142565b80636352211e146102e357806370a0823114610313578063715018a6146103435780638da5cb5b1461034d57806395d89b411461036b57610142565b806323b872dd1161010a57806323b872dd146101ff5780632f745c591461021b57806342842e0e1461024b57806342966c68146102675780634f6ccce71461028357806354f9abfa146102b357610142565b806301ffc9a71461014757806306fdde0314610177578063081812fc14610195578063095ea7b3146101c557806318160ddd146101e1575b600080fd5b610161600480360381019061015c9190612748565b610459565b60405161016e9190612790565b60405180910390f35b61017f61046b565b60405161018c919061283b565b60405180910390f35b6101af60048036038101906101aa9190612893565b6104fd565b6040516101bc9190612901565b60405180910390f35b6101df60048036038101906101da9190612948565b610543565b005b6101e961065a565b6040516101f69190612997565b60405180910390f35b610219600480360381019061021491906129b2565b610667565b005b61023560048036038101906102309190612948565b6106c7565b6040516102429190612997565b60405180910390f35b610265600480360381019061026091906129b2565b61076c565b005b610281600480360381019061027c9190612893565b61078c565b005b61029d60048036038101906102989190612893565b6107e8565b6040516102aa9190612997565b60405180910390f35b6102cd60048036038101906102c89190612a05565b610859565b6040516102da9190612997565b60405180910390f35b6102fd60048036038101906102f89190612893565b610871565b60405161030a9190612901565b60405180910390f35b61032d60048036038101906103289190612a05565b6108f7565b60405161033a9190612997565b60405180910390f35b61034b6109ae565b005b6103556109c2565b6040516103629190612901565b60405180910390f35b6103736109ec565b604051610380919061283b565b60405180910390f35b6103a3600480360381019061039e9190612a5e565b610a7e565b005b6103bf60048036038101906103ba9190612bd3565b610a94565b005b6103db60048036038101906103d69190612893565b610af6565b6040516103e8919061283b565b60405180910390f35b61040b60048036038101906104069190612cf7565b610b08565b005b61042760048036038101906104229190612d53565b610bc8565b6040516104349190612790565b60405180910390f35b61045760048036038101906104529190612a05565b610c5c565b005b600061046482610cdf565b9050919050565b60606000805461047a90612dc2565b80601f01602080910402602001604051908101604052809291908181526020018280546104a690612dc2565b80156104f35780601f106104c8576101008083540402835291602001916104f3565b820191906000526020600020905b8154815290600101906020018083116104d657829003601f168201915b5050505050905090565b600061050882610d59565b6004600083815260200190815260200160002060009054906101000a900473ffffffffffffffffffffffffffffffffffffffff169050919050565b600061054e82610871565b90508073ffffffffffffffffffffffffffffffffffffffff168373ffffffffffffffffffffffffffffffffffffffff16036105be576040517f08c379a00000000000000000000000000000000000000000000000000000000081526004016105b590612e65565b60405180910390fd5b8073ffffffffffffffffffffffffffffffffffffffff166105dd610da4565b73ffffffffffffffffffffffffffffffffffffffff16148061060c575061060b81610606610da4565b610bc8565b5b61064b576040517f08c379a000000000000000000000000000000000000000000000000000000000815260040161064290612ef7565b60405180910390fd5b6106558383610dac565b505050565b6000600880549050905090565b610678610672610da4565b82610e65565b6106b7576040517f08c379a00000000000000000000000000000000000000000000000000000000081526004016106ae90612f89565b60405180910390fd5b6106c2838383610efa565b505050565b60006106d2836108f7565b8210610713576040517f08c379a000000000000000000000000000000000000000000000000000000000815260040161070a9061301b565b60405180910390fd5b600660008473ffffffffffffffffffffffffffffffffffffffff1673ffffffffffffffffffffffffffffffffffffffff168152602001908152602001600020600083815260200190815260200160002054905092915050565b61078783838360405180602001604052806000815250610a94565b505050565b61079d610797610da4565b82610e65565b6107dc576040517f08c379a00000000000000000000000000000000000000000000000000000000081526004016107d390612f89565b60405180910390fd5b6107e5816111f3565b50565b60006107f261065a565b8210610833576040517f08c379a000000000000000000000000000000000000000000000000000000000815260040161082a906130ad565b60405180910390fd5b60088281548110610847576108466130cd565b5b90600052602060002001549050919050565b600d6020528060005260406000206000915090505481565b60008061087d83611303565b9050600073ffffffffffffffffffffffffffffffffffffffff168173ffffffffffffffffffffffffffffffffffffffff16036108ee576040517f08c379a00000000000000000000000000000000000000000000000000000000081526004016108e590613148565b60405180910390fd5b80915050919050565b60008073ffffffffffffffffffffffffffffffffffffffff168273ffffffffffffffffffffffffffffffffffffffff1603610967576040517f08c379a000000000000000000000000000000000000000000000000000000000815260040161095e906131da565b60405180910390fd5b600360008373ffffffffffffffffffffffffffffffffffffffff1673ffffffffffffffffffffffffffffffffffffffff168152602001908152602001600020549050919050565b6109b6611340565b6109c060006113be565b565b6000600b60009054906101000a900473ffffffffffffffffffffffffffffffffffffffff16905090565b6060600180546109fb90612dc2565b80601f0160208091040260200160405190810160405280929190818152602001828054610a2790612dc2565b8015610a745780601f10610a4957610100808354040283529160200191610a74565b820191906000526020600020905b815481529060010190602001808311610a5757829003601f168201915b5050505050905090565b610a90610a89610da4565b8383611484565b5050565b610aa5610a9f610da4565b83610e65565b610ae4576040517f08c379a0000000000000000000000000000000000000000000000000000000008152600401610adb90612f89565b60405180910390fd5b610af0848484846115f0565b50505050565b6060610b018261164c565b9050919050565b6000610b13836108f7565b14610b53576040517f08c379a0000000000000000000000000000000000000000000000000000000008152600401610b4a90613246565b60405180910390fd5b6000610b5f600c61175e565b905080600d60008573ffffffffffffffffffffffffffffffffffffffff1673ffffffffffffffffffffffffffffffffffffffff16815260200190815260200160002081905550610baf600c61176c565b610bb98382611782565b610bc381836117a0565b505050565b6000600560008473ffffffffffffffffffffffffffffffffffffffff1673ffffffffffffffffffffffffffffffffffffffff16815260200190815260200160002060008373ffffffffffffffffffffffffffffffffffffffff1673ffffffffffffffffffffffffffffffffffffffff16815260200190815260200160002060009054906101000a900460ff16905092915050565b610c64611340565b600073ffffffffffffffffffffffffffffffffffffffff168173ffffffffffffffffffffffffffffffffffffffff1603610cd3576040517f08c379a0000000000000000000000000000000000000000000000000000000008152600401610cca906132d8565b60405180910390fd5b610cdc816113be565b50565b60007f780e9d63000000000000000000000000000000000000000000000000000000007bffffffffffffffffffffffffffffffffffffffffffffffffffffffff1916827bffffffffffffffffffffffffffffffffffffffffffffffffffffffff19161480610d525750610d518261180d565b5b9050919050565b610d62816118ef565b610da1576040517f08c379a0000000000000000000000000000000000000000000000000000000008152600401610d9890613148565b60405180910390fd5b50565b600033905090565b816004600083815260200190815260200160002060006101000a81548173ffffffffffffffffffffffffffffffffffffffff021916908373ffffffffffffffffffffffffffffffffffffffff160217905550808273ffffffffffffffffffffffffffffffffffffffff16610e1f83610871565b73ffffffffffffffffffffffffffffffffffffffff167f8c5be1e5ebec7d5bd14f71427d1e84f3dd0314c0f7b2291e5b200ac8c7c3b92560405160405180910390a45050565b600080610e7183610871565b90508073ffffffffffffffffffffffffffffffffffffffff168473ffffffffffffffffffffffffffffffffffffffff161480610eb35750610eb28185610bc8565b5b80610ef157508373ffffffffffffffffffffffffffffffffffffffff16610ed9846104fd565b73ffffffffffffffffffffffffffffffffffffffff16145b91505092915050565b8273ffffffffffffffffffffffffffffffffffffffff16610f1a82610871565b73ffffffffffffffffffffffffffffffffffffffff1614610f70576040517f08c379a0000000000000000000000000000000000000000000000000000000008152600401610f679061336a565b60405180910390fd5b600073ffffffffffffffffffffffffffffffffffffffff168273ffffffffffffffffffffffffffffffffffffffff1603610fdf576040517f08c379a0000000000000000000000000000000000000000000000000000000008152600401610fd6906133fc565b60405180910390fd5b610fec8383836001611930565b8273ffffffffffffffffffffffffffffffffffffffff1661100c82610871565b73ffffffffffffffffffffffffffffffffffffffff1614611062576040517f08c379a00000000000000000000000000000000000000000000000000000000081526004016110599061336a565b60405180910390fd5b6004600082815260200190815260200160002060006101000a81549073ffffffffffffffffffffffffffffffffffffffff02191690556001600360008573ffffffffffffffffffffffffffffffffffffffff1673ffffffffffffffffffffffffffffffffffffffff168152602001908152602001600020600082825403925050819055506001600360008473ffffffffffffffffffffffffffffffffffffffff1673ffffffffffffffffffffffffffffffffffffffff16815260200190815260200160002060008282540192505081905550816002600083815260200190815260200160002060006101000a81548173ffffffffffffffffffffffffffffffffffffffff021916908373ffffffffffffffffffffffffffffffffffffffff160217905550808273ffffffffffffffffffffffffffffffffffffffff168473ffffffffffffffffffffffffffffffffffffffff167fddf252ad1be2c89b69c2b068fc378daa952ba7f163c4a11628f55a4df523b3ef60405160405180910390a46111ee8383836001611942565b505050565b3373ffffffffffffffffffffffffffffffffffffffff1661121382610871565b73ffffffffffffffffffffffffffffffffffffffff1614611269576040517f08c379a000000000000000000000000000000000000000000000000000000000815260040161126090613468565b60405180910390fd5b6001611274336108f7565b146112b4576040517f08c379a00000000000000000000000000000000000000000000000000000000081526004016112ab906134d4565b60405180910390fd5b600d60003373ffffffffffffffffffffffffffffffffffffffff1673ffffffffffffffffffffffffffffffffffffffff1681526020019081526020016000206000905561130081611948565b50565b60006002600083815260200190815260200160002060009054906101000a900473ffffffffffffffffffffffffffffffffffffffff169050919050565b611348610da4565b73ffffffffffffffffffffffffffffffffffffffff166113666109c2565b73ffffffffffffffffffffffffffffffffffffffff16146113bc576040517f08c379a00000000000000000000000000000000000000000000000000000000081526004016113b390613540565b60405180910390fd5b565b6000600b60009054906101000a900473ffffffffffffffffffffffffffffffffffffffff16905081600b60006101000a81548173ffffffffffffffffffffffffffffffffffffffff021916908373ffffffffffffffffffffffffffffffffffffffff1602179055508173ffffffffffffffffffffffffffffffffffffffff168173ffffffffffffffffffffffffffffffffffffffff167f8be0079c531659141344cd1fd0a4f28419497f9722a3daafe3b4186f6b6457e060405160405180910390a35050565b8173ffffffffffffffffffffffffffffffffffffffff168373ffffffffffffffffffffffffffffffffffffffff16036114f2576040517f08c379a00000000000000000000000000000000000000000000000000000000081526004016114e9906135ac565b60405180910390fd5b80600560008573ffffffffffffffffffffffffffffffffffffffff1673ffffffffffffffffffffffffffffffffffffffff16815260200190815260200160002060008473ffffffffffffffffffffffffffffffffffffffff1673ffffffffffffffffffffffffffffffffffffffff16815260200190815260200160002060006101000a81548160ff0219169083151502179055508173ffffffffffffffffffffffffffffffffffffffff168373ffffffffffffffffffffffffffffffffffffffff167f17307eab39ab6107e8899845ad3d59bd9653f200f220920489ca2b5937696c31836040516115e39190612790565b60405180910390a3505050565b6115fb848484610efa565b6116078484848461199b565b611646576040517f08c379a000000000000000000000000000000000000000000000000000000000815260040161163d9061363e565b60405180910390fd5b50505050565b606061165782610d59565b6000600a6000848152602001908152602001600020805461167790612dc2565b80601f01602080910402602001604051908101604052809291908181526020018280546116a390612dc2565b80156116f05780601f106116c5576101008083540402835291602001916116f0565b820191906000526020600020905b8154815290600101906020018083116116d357829003601f168201915b505050505090506000611701611b22565b90506000815103611716578192505050611759565b60008251111561174b57808260405160200161173392919061369a565b60405160208183030381529060405292505050611759565b61175484611b39565b925050505b919050565b600081600001549050919050565b6001816000016000828254019250508190555050565b61179c828260405180602001604052806000815250611ba1565b5050565b6117a9826118ef565b6117e8576040517f08c379a00000000000000000000000000000000000000000000000000000000081526004016117df90613730565b60405180910390fd5b80600a6000848152602001908152602001600020908161180891906138fc565b505050565b60007f80ac58cd000000000000000000000000000000000000000000000000000000007bffffffffffffffffffffffffffffffffffffffffffffffffffffffff1916827bffffffffffffffffffffffffffffffffffffffffffffffffffffffff191614806118d857507f5b5e139f000000000000000000000000000000000000000000000000000000007bffffffffffffffffffffffffffffffffffffffffffffffffffffffff1916827bffffffffffffffffffffffffffffffffffffffffffffffffffffffff1916145b806118e857506118e782611bfc565b5b9050919050565b60008073ffffffffffffffffffffffffffffffffffffffff1661191183611303565b73ffffffffffffffffffffffffffffffffffffffff1614159050919050565b61193c84848484611c66565b50505050565b50505050565b61195181611dc4565b6000600a6000838152602001908152602001600020805461197190612dc2565b90501461199857600a60008281526020019081526020016000206000611997919061267f565b5b50565b60006119bc8473ffffffffffffffffffffffffffffffffffffffff16611f12565b15611b15578373ffffffffffffffffffffffffffffffffffffffff1663150b7a026119e5610da4565b8786866040518563ffffffff1660e01b8152600401611a079493929190613a23565b6020604051808303816000875af1925050508015611a4357506040513d601f19601f82011682018060405250810190611a409190613a84565b60015b611ac5573d8060008114611a73576040519150601f19603f3d011682016040523d82523d6000602084013e611a78565b606091505b506000815103611abd576040517f08c379a0000000000000000000000000000000000000000000000000000000008152600401611ab49061363e565b60405180910390fd5b805181602001fd5b63150b7a0260e01b7bffffffffffffffffffffffffffffffffffffffffffffffffffffffff1916817bffffffffffffffffffffffffffffffffffffffffffffffffffffffff191614915050611b1a565b600190505b949350505050565b606060405180602001604052806000815250905090565b6060611b4482610d59565b6000611b4e611b22565b90506000815111611b6e5760405180602001604052806000815250611b99565b80611b7884611f35565b604051602001611b8992919061369a565b6040516020818303038152906040525b915050919050565b611bab8383612003565b611bb8600084848461199b565b611bf7576040517f08c379a0000000000000000000000000000000000000000000000000000000008152600401611bee9061363e565b60405180910390fd5b505050565b60007f01ffc9a7000000000000000000000000000000000000000000000000000000007bffffffffffffffffffffffffffffffffffffffffffffffffffffffff1916827bffffffffffffffffffffffffffffffffffffffffffffffffffffffff1916149050919050565b611c7284848484612220565b6001811115611cb6576040517f08c379a0000000000000000000000000000000000000000000000000000000008152600401611cad90613b23565b60405180910390fd5b6000829050600073ffffffffffffffffffffffffffffffffffffffff168573ffffffffffffffffffffffffffffffffffffffff1603611cfd57611cf881612226565b611d3c565b8373ffffffffffffffffffffffffffffffffffffffff168573ffffffffffffffffffffffffffffffffffffffff1614611d3b57611d3a858261226f565b5b5b600073ffffffffffffffffffffffffffffffffffffffff168473ffffffffffffffffffffffffffffffffffffffff1603611d7e57611d79816123dc565b611dbd565b8473ffffffffffffffffffffffffffffffffffffffff168473ffffffffffffffffffffffffffffffffffffffff1614611dbc57611dbb84826124ad565b5b5b5050505050565b6000611dcf82610871565b9050611ddf816000846001611930565b611de882610871565b90506004600083815260200190815260200160002060006101000a81549073ffffffffffffffffffffffffffffffffffffffff02191690556001600360008373ffffffffffffffffffffffffffffffffffffffff1673ffffffffffffffffffffffffffffffffffffffff168152602001908152602001600020600082825403925050819055506002600083815260200190815260200160002060006101000a81549073ffffffffffffffffffffffffffffffffffffffff021916905581600073ffffffffffffffffffffffffffffffffffffffff168273ffffffffffffffffffffffffffffffffffffffff167fddf252ad1be2c89b69c2b068fc378daa952ba7f163c4a11628f55a4df523b3ef60405160405180910390a4611f0e816000846001611942565b5050565b6000808273ffffffffffffffffffffffffffffffffffffffff163b119050919050565b606060006001611f448461252c565b01905060008167ffffffffffffffff811115611f6357611f62612aa8565b5b6040519080825280601f01601f191660200182016040528015611f955781602001600182028036833780820191505090505b509050600082602001820190505b600115611ff8578080600190039150507f3031323334353637383961626364656600000000000000000000000000000000600a86061a8153600a8581611fec57611feb613b43565b5b04945060008503611fa3575b819350505050919050565b600073ffffffffffffffffffffffffffffffffffffffff168273ffffffffffffffffffffffffffffffffffffffff1603612072576040517f08c379a000000000000000000000000000000000000000000000000000000000815260040161206990613bbe565b60405180910390fd5b61207b816118ef565b156120bb576040517f08c379a00000000000000000000000000000000000000000000000000000000081526004016120b290613c2a565b60405180910390fd5b6120c9600083836001611930565b6120d2816118ef565b15612112576040517f08c379a000000000000000000000000000000000000000000000000000000000815260040161210990613c2a565b60405180910390fd5b6001600360008473ffffffffffffffffffffffffffffffffffffffff1673ffffffffffffffffffffffffffffffffffffffff16815260200190815260200160002060008282540192505081905550816002600083815260200190815260200160002060006101000a81548173ffffffffffffffffffffffffffffffffffffffff021916908373ffffffffffffffffffffffffffffffffffffffff160217905550808273ffffffffffffffffffffffffffffffffffffffff16600073ffffffffffffffffffffffffffffffffffffffff167fddf252ad1be2c89b69c2b068fc378daa952ba7f163c4a11628f55a4df523b3ef60405160405180910390a461221c600083836001611942565b5050565b50505050565b6008805490506009600083815260200190815260200160002081905550600881908060018154018082558091505060019003906000526020600020016000909190919091505550565b6000600161227c846108f7565b6122869190613c79565b905060006007600084815260200190815260200160002054905081811461236b576000600660008673ffffffffffffffffffffffffffffffffffffffff1673ffffffffffffffffffffffffffffffffffffffff168152602001908152602001600020600084815260200190815260200160002054905080600660008773ffffffffffffffffffffffffffffffffffffffff1673ffffffffffffffffffffffffffffffffffffffff168152602001908152602001600020600084815260200190815260200160002081905550816007600083815260200190815260200160002081905550505b6007600084815260200190815260200160002060009055600660008573ffffffffffffffffffffffffffffffffffffffff1673ffffffffffffffffffffffffffffffffffffffff16815260200190815260200160002060008381526020019081526020016000206000905550505050565b600060016008805490506123f09190613c79565b90506000600960008481526020019081526020016000205490506000600883815481106124205761241f6130cd565b5b906000526020600020015490508060088381548110612442576124416130cd565b5b90600052602060002001819055508160096000838152602001908152602001600020819055506009600085815260200190815260200160002060009055600880548061249157612490613cad565b5b6001900381819060005260206000200160009055905550505050565b60006124b8836108f7565b905081600660008573ffffffffffffffffffffffffffffffffffffffff1673ffffffffffffffffffffffffffffffffffffffff168152602001908152602001600020600083815260200190815260200160002081905550806007600084815260200190815260200160002081905550505050565b600080600090507a184f03e93ff9f4daa797ed6e38ed64bf6a1f010000000000000000831061258a577a184f03e93ff9f4daa797ed6e38ed64bf6a1f01000000000000000083816125805761257f613b43565b5b0492506040810190505b6d04ee2d6d415b85acef810000000083106125c7576d04ee2d6d415b85acef810000000083816125bd576125bc613b43565b5b0492506020810190505b662386f26fc1000083106125f657662386f26fc1000083816125ec576125eb613b43565b5b0492506010810190505b6305f5e100831061261f576305f5e100838161261557612614613b43565b5b0492506008810190505b612710831061264457612710838161263a57612639613b43565b5b0492506004810190505b60648310612667576064838161265d5761265c613b43565b5b0492506002810190505b600a8310612676576001810190505b80915050919050565b50805461268b90612dc2565b6000825580601f1061269d57506126bc565b601f0160209004906000526020600020908101906126bb91906126bf565b5b50565b5b808211156126d85760008160009055506001016126c0565b5090565b6000604051905090565b600080fd5b600080fd5b60007fffffffff0000000000000000000000000000000000000000000000000000000082169050919050565b612725816126f0565b811461273057600080fd5b50565b6000813590506127428161271c565b92915050565b60006020828403121561275e5761275d6126e6565b5b600061276c84828501612733565b91505092915050565b60008115159050919050565b61278a81612775565b82525050565b60006020820190506127a56000830184612781565b92915050565b600081519050919050565b600082825260208201905092915050565b60005b838110156127e55780820151818401526020810190506127ca565b60008484015250505050565b6000601f19601f8301169050919050565b600061280d826127ab565b61281781856127b6565b93506128278185602086016127c7565b612830816127f1565b840191505092915050565b600060208201905081810360008301526128558184612802565b905092915050565b6000819050919050565b6128708161285d565b811461287b57600080fd5b50565b60008135905061288d81612867565b92915050565b6000602082840312156128a9576128a86126e6565b5b60006128b78482850161287e565b91505092915050565b600073ffffffffffffffffffffffffffffffffffffffff82169050919050565b60006128eb826128c0565b9050919050565b6128fb816128e0565b82525050565b600060208201905061291660008301846128f2565b92915050565b612925816128e0565b811461293057600080fd5b50565b6000813590506129428161291c565b92915050565b6000806040838503121561295f5761295e6126e6565b5b600061296d85828601612933565b925050602061297e8582860161287e565b9150509250929050565b6129918161285d565b82525050565b60006020820190506129ac6000830184612988565b92915050565b6000806000606084860312156129cb576129ca6126e6565b5b60006129d986828701612933565b93505060206129ea86828701612933565b92505060406129fb8682870161287e565b9150509250925092565b600060208284031215612a1b57612a1a6126e6565b5b6000612a2984828501612933565b91505092915050565b612a3b81612775565b8114612a4657600080fd5b50565b600081359050612a5881612a32565b92915050565b60008060408385031215612a7557612a746126e6565b5b6000612a8385828601612933565b9250506020612a9485828601612a49565b9150509250929050565b600080fd5b600080fd5b7f4e487b7100000000000000000000000000000000000000000000000000000000600052604160045260246000fd5b612ae0826127f1565b810181811067ffffffffffffffff82111715612aff57612afe612aa8565b5b80604052505050565b6000612b126126dc565b9050612b1e8282612ad7565b919050565b600067ffffffffffffffff821115612b3e57612b3d612aa8565b5b612b47826127f1565b9050602081019050919050565b82818337600083830152505050565b6000612b76612b7184612b23565b612b08565b905082815260208101848484011115612b9257612b91612aa3565b5b612b9d848285612b54565b509392505050565b600082601f830112612bba57612bb9612a9e565b5b8135612bca848260208601612b63565b91505092915050565b60008060008060808587031215612bed57612bec6126e6565b5b6000612bfb87828801612933565b9450506020612c0c87828801612933565b9350506040612c1d8782880161287e565b925050606085013567ffffffffffffffff811115612c3e57612c3d6126eb565b5b612c4a87828801612ba5565b91505092959194509250565b600067ffffffffffffffff821115612c7157612c70612aa8565b5b612c7a826127f1565b9050602081019050919050565b6000612c9a612c9584612c56565b612b08565b905082815260208101848484011115612cb657612cb5612aa3565b5b612cc1848285612b54565b509392505050565b600082601f830112612cde57612cdd612a9e565b5b8135612cee848260208601612c87565b91505092915050565b60008060408385031215612d0e57612d0d6126e6565b5b6000612d1c85828601612933565b925050602083013567ffffffffffffffff811115612d3d57612d3c6126eb565b5b612d4985828601612cc9565b9150509250929050565b60008060408385031215612d6a57612d696126e6565b5b6000612d7885828601612933565b9250506020612d8985828601612933565b9150509250929050565b7f4e487b7100000000000000000000000000000000000000000000000000000000600052602260045260246000fd5b60006002820490506001821680612dda57607f821691505b602082108103612ded57612dec612d93565b5b50919050565b7f4552433732313a20617070726f76616c20746f2063757272656e74206f776e6560008201527f7200000000000000000000000000000000000000000000000000000000000000602082015250565b6000612e4f6021836127b6565b9150612e5a82612df3565b604082019050919050565b60006020820190508181036000830152612e7e81612e42565b9050919050565b7f4552433732313a20617070726f76652063616c6c6572206973206e6f7420746f60008201527f6b656e206f776e6572206f7220617070726f76656420666f7220616c6c000000602082015250565b6000612ee1603d836127b6565b9150612eec82612e85565b604082019050919050565b60006020820190508181036000830152612f1081612ed4565b9050919050565b7f4552433732313a2063616c6c6572206973206e6f7420746f6b656e206f776e6560008201527f72206f7220617070726f76656400000000000000000000000000000000000000602082015250565b6000612f73602d836127b6565b9150612f7e82612f17565b604082019050919050565b60006020820190508181036000830152612fa281612f66565b9050919050565b7f455243373231456e756d657261626c653a206f776e657220696e646578206f7560008201527f74206f6620626f756e6473000000000000000000000000000000000000000000602082015250565b6000613005602b836127b6565b915061301082612fa9565b604082019050919050565b6000602082019050818103600083015261303481612ff8565b9050919050565b7f455243373231456e756d657261626c653a20676c6f62616c20696e646578206f60008201527f7574206f6620626f756e64730000000000000000000000000000000000000000602082015250565b6000613097602c836127b6565b91506130a28261303b565b604082019050919050565b600060208201905081810360008301526130c68161308a565b9050919050565b7f4e487b7100000000000000000000000000000000000000000000000000000000600052603260045260246000fd5b7f4552433732313a20696e76616c696420746f6b656e2049440000000000000000600082015250565b60006131326018836127b6565b915061313d826130fc565b602082019050919050565b6000602082019050818103600083015261316181613125565b9050919050565b7f4552433732313a2061646472657373207a65726f206973206e6f74206120766160008201527f6c6964206f776e65720000000000000000000000000000000000000000000000602082015250565b60006131c46029836127b6565b91506131cf82613168565b604082019050919050565b600060208201905081810360008301526131f3816131b7565b9050919050565b7f596f7520616c726561647920686176652061204e465400000000000000000000600082015250565b60006132306016836127b6565b915061323b826131fa565b602082019050919050565b6000602082019050818103600083015261325f81613223565b9050919050565b7f4f776e61626c653a206e6577206f776e657220697320746865207a65726f206160008201527f6464726573730000000000000000000000000000000000000000000000000000602082015250565b60006132c26026836127b6565b91506132cd82613266565b604082019050919050565b600060208201905081810360008301526132f1816132b5565b9050919050565b7f4552433732313a207472616e736665722066726f6d20696e636f72726563742060008201527f6f776e6572000000000000000000000000000000000000000000000000000000602082015250565b60006133546025836127b6565b915061335f826132f8565b604082019050919050565b6000602082019050818103600083015261338381613347565b9050919050565b7f4552433732313a207472616e7366657220746f20746865207a65726f2061646460008201527f7265737300000000000000000000000000000000000000000000000000000000602082015250565b60006133e66024836127b6565b91506133f18261338a565b604082019050919050565b60006020820190508181036000830152613415816133d9565b9050919050565b7f596f7520617265206e6f742061204e4654206f776e6572000000000000000000600082015250565b60006134526017836127b6565b915061345d8261341c565b602082019050919050565b6000602082019050818103600083015261348181613445565b9050919050565b7f596f7520646f6e742068617665204e4654000000000000000000000000000000600082015250565b60006134be6011836127b6565b91506134c982613488565b602082019050919050565b600060208201905081810360008301526134ed816134b1565b9050919050565b7f4f776e61626c653a2063616c6c6572206973206e6f7420746865206f776e6572600082015250565b600061352a6020836127b6565b9150613535826134f4565b602082019050919050565b600060208201905081810360008301526135598161351d565b9050919050565b7f4552433732313a20617070726f766520746f2063616c6c657200000000000000600082015250565b60006135966019836127b6565b91506135a182613560565b602082019050919050565b600060208201905081810360008301526135c581613589565b9050919050565b7f4552433732313a207472616e7366657220746f206e6f6e20455243373231526560008201527f63656976657220696d706c656d656e7465720000000000000000000000000000602082015250565b60006136286032836127b6565b9150613633826135cc565b604082019050919050565b600060208201905081810360008301526136578161361b565b9050919050565b600081905092915050565b6000613674826127ab565b61367e818561365e565b935061368e8185602086016127c7565b80840191505092915050565b60006136a68285613669565b91506136b28284613669565b91508190509392505050565b7f45524337323155524953746f726167653a2055524920736574206f66206e6f6e60008201527f6578697374656e7420746f6b656e000000000000000000000000000000000000602082015250565b600061371a602e836127b6565b9150613725826136be565b604082019050919050565b600060208201905081810360008301526137498161370d565b9050919050565b60008190508160005260206000209050919050565b60006020601f8301049050919050565b600082821b905092915050565b6000600883026137b27fffffffffffffffffffffffffffffffffffffffffffffffffffffffffffffffff82613775565b6137bc8683613775565b95508019841693508086168417925050509392505050565b6000819050919050565b60006137f96137f46137ef8461285d565b6137d4565b61285d565b9050919050565b6000819050919050565b613813836137de565b61382761381f82613800565b848454613782565b825550505050565b600090565b61383c61382f565b61384781848461380a565b505050565b5b8181101561386b57613860600082613834565b60018101905061384d565b5050565b601f8211156138b05761388181613750565b61388a84613765565b81016020851015613899578190505b6138ad6138a585613765565b83018261384c565b50505b505050565b600082821c905092915050565b60006138d3600019846008026138b5565b1980831691505092915050565b60006138ec83836138c2565b9150826002028217905092915050565b613905826127ab565b67ffffffffffffffff81111561391e5761391d612aa8565b5b6139288254612dc2565b61393382828561386f565b600060209050601f8311600181146139665760008415613954578287015190505b61395e85826138e0565b8655506139c6565b601f19841661397486613750565b60005b8281101561399c57848901518255600182019150602085019450602081019050613977565b868310156139b957848901516139b5601f8916826138c2565b8355505b6001600288020188555050505b505050505050565b600081519050919050565b600082825260208201905092915050565b60006139f5826139ce565b6139ff81856139d9565b9350613a0f8185602086016127c7565b613a18816127f1565b840191505092915050565b6000608082019050613a3860008301876128f2565b613a4560208301866128f2565b613a526040830185612988565b8181036060830152613a6481846139ea565b905095945050505050565b600081519050613a7e8161271c565b92915050565b600060208284031215613a9a57613a996126e6565b5b6000613aa884828501613a6f565b91505092915050565b7f455243373231456e756d657261626c653a20636f6e736563757469766520747260008201527f616e7366657273206e6f7420737570706f727465640000000000000000000000602082015250565b6000613b0d6035836127b6565b9150613b1882613ab1565b604082019050919050565b60006020820190508181036000830152613b3c81613b00565b9050919050565b7f4e487b7100000000000000000000000000000000000000000000000000000000600052601260045260246000fd5b7f4552433732313a206d696e7420746f20746865207a65726f2061646472657373600082015250565b6000613ba86020836127b6565b9150613bb382613b72565b602082019050919050565b60006020820190508181036000830152613bd781613b9b565b9050919050565b7f4552433732313a20746f6b656e20616c7265616479206d696e74656400000000600082015250565b6000613c14601c836127b6565b9150613c1f82613bde565b602082019050919050565b60006020820190508181036000830152613c4381613c07565b9050919050565b7f4e487b7100000000000000000000000000000000000000000000000000000000600052601160045260246000fd5b6000613c848261285d565b9150613c8f8361285d565b9250828203905081811115613ca757613ca6613c4a565b5b92915050565b7f4e487b7100000000000000000000000000000000000000000000000000000000600052603160045260246000fdfea2646970667358221220d3592fe4240286c21e48eab9ebfd3734ac2751f3d287f5af95c5f126252b763964736f6c63430008110033",
  "linkReferences": {},
  "deployedLinkReferences": {}
}